:100000000C942A000C9447000C9447000C94470071
:100010000C9447000C9447000C9447000C94470044
:100020000C9447000C9447000C9400080C9433087F
:100030000C9447000C9447000C9447000C94470024
:100040000C9447000C9447000C9447000C94470014
:100050000C94470011241FBECFE5D8E0DEBFCDBF12
:1000600010E0A0E6B0E0E6E3F8E102C005900D92F2
:10007000AA36B107D9F710E0AAE6B0E001C01D9298
:10008000AE36B107E1F70E945F050C94190C0C9491
:100090000000DF93CF93CDB7DEB78AE066E041E0A2
:1000A0000E94AE018AE063E040E00E94AE018AE077
:1000B00066E040E00E94A400CF91DF910895DF93B5
:1000C000CF9300D000D0CDB7DEB78A837C836B831B
:1000D0008CE089838A818B3091F48B819C8100979D
:1000E00071F02B813C818AE063E0A9010E944C03FE
:1000F00068E070E080E090E00E94660802C08DE059
:10010000898389810F900F900F900F90CF91DF918D
:100110000895DF93CF9300D0CDB7DEB78A838CE00C
:1001200089838A818B3041F48AE063E041E00E9458
:10013000A4000E94CF0402C08DE0898389810F90C2
:100140000F90CF91DF910895DF93CF9300D000D02F
:1001500000D0CDB7DEB78A836B834C8382E089837E
:100160008B81883008F0EEC08A81282F30E03E83F2
:100170002D838D819E818930910509F44AC02D819E
:100180003E812A30310534F48D819E81883091057D
:1001900071F0D5C02D813E812A30310509F46BC044
:1001A0008D819E818B30910509F497C0C8C08C81E8
:1001B0008823A9F4ABE3B0E0EBE3F0E08081482FC3
:1001C0008B81282F30E081E090E0022E02C0880F62
:1001D000991F0A94E2F7809584238C93B5C08C8193
:1001E0008130A1F4ABE3B0E0EBE3F0E08081482F95
:1001F0008B81282F30E081E090E0022E02C0880F32
:10020000991F0A94E2F7842B8C939EC083E0898324
:100210009BC08C818823A9F4A8E3B0E0E8E3F0E078
:100220008081482F8B81282F30E081E090E0022EE2
:1002300002C0880F991F0A94E2F7809584238C935B
:1002400083C08C818130A1F4A8E3B0E0E8E3F0E062
:100250008081482F8B81282F30E081E090E0022EB2
:1002600002C0880F991F0A94E2F7842B8C936CC00C
:1002700083E0898369C08C818823A9F4A5E3B0E079
:10028000E5E3F0E08081482F8B81282F30E081E08A
:1002900090E0022E02C0880F991F0A94E2F7809521
:1002A00084238C9351C08C818130A1F4A5E3B0E00C
:1002B000E5E3F0E08081482F8B81282F30E081E05A
:1002C00090E0022E02C0880F991F0A94E2F7842B57
:1002D0008C933AC083E0898337C08C818823A9F44A
:1002E000A2E3B0E0E2E3F0E08081482F8B81282F89
:1002F00030E081E090E0022E02C0880F991F0A943E
:10030000E2F7809584238C931FC08C818130A1F407
:10031000A2E3B0E0E2E3F0E08081482F8B81282F58
:1003200030E081E090E0022E02C0880F991F0A940D
:10033000E2F7842B8C9308C083E0898305C083E0B7
:10034000898302C083E08983898126960FB6F89459
:10035000DEBF0FBECDBFCF91DF910895DF93CF9366
:1003600000D000D000D0CDB7DEB78A836B834C833A
:1003700082E089838B81883008F0EEC08A81282F43
:1003800030E03E832D838D819E818930910509F473
:100390004AC02D813E812A30310534F48D819E8101
:1003A0008830910571F0D5C02D813E812A3031050C
:1003B00009F46BC08D819E818B30910509F497C043
:1003C000C8C08C818130A1F4AAE3B0E0EAE3F0E098
:1003D0008081482F8B81282F30E081E090E0022E31
:1003E00002C0880F991F0A94E2F7842B8C93B6C041
:1003F0008C818823A9F4AAE3B0E0EAE3F0E08081ED
:10040000482F8B81282F30E081E090E0022E02C03F
:10041000880F991F0A94E2F7809584238C939EC0DD
:1004200083E089839BC08C818130A1F4A7E3B0E095
:10043000E7E3F0E08081482F8B81282F30E081E0D6
:1004400090E0022E02C0880F991F0A94E2F7842BD5
:100450008C9384C08C818823A9F4A7E3B0E0E7E300
:10046000F0E08081482F8B81282F30E081E090E000
:10047000022E02C0880F991F0A94E2F78095842308
:100480008C936CC083E0898369C08C818130A1F436
:10049000A4E3B0E0E4E3F0E08081482F8B81282FD3
:1004A00030E081E090E0022E02C0880F991F0A948C
:1004B000E2F7842B8C9352C08C818823A9F4A4E3A7
:1004C000B0E0E4E3F0E08081482F8B81282F30E01A
:1004D00081E090E0022E02C0880F991F0A94E2F793
:1004E000809584238C933AC083E0898337C08C81C4
:1004F0008130A1F4A1E3B0E0E1E3F0E08081482F96
:100500008B81282F30E081E090E0022E02C0880F1E
:10051000991F0A94E2F7842B8C9320C08C81882346
:10052000A9F4A1E3B0E0E1E3F0E08081482F8B8102
:10053000282F30E081E090E0022E02C0880F991F42
:100540000A94E2F7809584238C9308C083E0898322
:1005500005C083E0898302C083E089838981269670
:100560000FB6F894DEBF0FBECDBFCF91DF910895D7
:10057000DF93CF9300D000D00F92CDB7DEB78A8340
:100580006B8382E089838A81282F30E03D832C832E
:100590008C819D8189309105D9F02C813D812A3053
:1005A000310534F48C819D818830910561F01FC044
:1005B0002C813D812A30310581F08C819D818B30E9
:1005C000910581F014C0EBE3F0E08B81808311C0D2
:1005D000E8E3F0E08B8180830CC0E5E3F0E08B8101
:1005E000808307C0E2E3F0E08B81808302C083E078
:1005F000898389810F900F900F900F900F90CF916A
:10060000DF910895DF93CF9300D000D00F92CDB744
:10061000DEB78A836B8382E089838A81282F30E06A
:100620003D832C838C819D8189309105D9F02C816B
:100630003D812A30310534F48C819D8188309105CB
:1006400061F01FC02C813D812A30310581F08C8101
:100650009D818B30910581F014C0EAE3F0E08B813D
:10066000808311C0E7E3F0E08B8180830CC0E4E37A
:10067000F0E08B81808307C0E1E3F0E08B81808331
:1006800002C083E0898389810F900F900F900F90B3
:100690000F90CF91DF910895DF93CF93CDB7DEB761
:1006A00027970FB6F894DEBF0FBECDBF8A836B834A
:1006B0005D834C8382E089838B81883008F074C02D
:1006C0008A81282F30E03F832E834E815F8149301D
:1006D000510559F18E819F818A30910534F42E8124
:1006E0003F812830310569F05CC04E815F814A301E
:1006F000510579F18E819F818B30910509F43DC0C0
:1007000050C0E9E3F0E08081282F30E08B81882F12
:1007100090E0A90102C0559547958A95E2F7CA0174
:100720008170EC81FD81808341C0E6E3F0E080814F
:10073000282F30E08B81882F90E0A90102C05595C9
:1007400047958A95E2F7CA018170EC81FD8180832B
:100750002DC0E3E3F0E08081282F30E08B81882FEB
:1007600090E0A90102C0559547958A95E2F7CA0124
:100770008170EC81FD81808319C0E0E3F0E080812D
:10078000282F30E08B81882F90E0A90102C0559579
:1007900047958A95E2F7CA018170EC81FD818083DB
:1007A00005C083E0898302C083E08983898127961D
:1007B0000FB6F894DEBF0FBECDBFCF91DF91089585
:1007C000DF93CF9300D000D000D0CDB7DEB78A83BF
:1007D0007C836B8382E089838A81282F30E03E838B
:1007E0002D838D819E8189309105E9F02D813E8197
:1007F0002A30310534F48D819E818830910561F075
:1008000027C02D813E812A303105A1F08D819E8146
:100810008B309105B1F01CC0E9E3F0E08081EB8101
:10082000FC81808317C0E6E3F0E08081EB81FC81EE
:10083000808310C0E3E3F0E08081EB81FC81808362
:1008400009C0E0E3F0E08081EB81FC81808302C09D
:1008500083E08983898126960FB6F894DEBF0FBEA8
:10086000CDBFCF91DF910895DF93CF9300D000D01B
:100870000F92CDB7DEB78A836B8382E089838B8149
:10088000883008F073C08A81282F30E03D832C83A4
:100890008C819D818930910551F12C813D812A30D7
:1008A000310534F48C819D818830910561F05BC005
:1008B0002C813D812A30310571F18C819D818B30F5
:1008C0009105E9F150C0ABE3B0E0EBE3F0E08081EB
:1008D000482F8B81282F30E081E090E0022E02C06B
:1008E000880F991F0A94E2F784278C9341C0A8E3EC
:1008F000B0E0E8E3F0E08081482F8B81282F30E0E2
:1009000081E090E0022E02C0880F991F0A94E2F75E
:1009100084278C932DC0A5E3B0E0E5E3F0E080816F
:10092000482F8B81282F30E081E090E0022E02C01A
:10093000880F991F0A94E2F784278C9319C0A2E3C9
:10094000B0E0E2E3F0E08081482F8B81282F30E097
:1009500081E090E0022E02C0880F991F0A94E2F70E
:1009600084278C9305C083E0898302C083E0898358
:1009700089810F900F900F900F900F90CF91DF9182
:100980000895DF93CF93CDB7DEB7A0E5B0E0E0E503
:10099000F0E0808184608C93CF91DF910895DF93A4
:1009A000CF93CDB7DEB7A0E5B0E0E0E5F0E0808121
:1009B0008B7F8C93CF91DF910895DF93CF93CDB749
:1009C000DEB789E064E041E00E94AE0189E065E0C5
:1009D00041E00E94AE0189E066E041E00E94AE0184
:1009E00089E067E041E00E94AE0189E064E040E018
:1009F0000E94A40089E065E040E00E94A40089E034
:100A000066E040E00E94A40089E067E040E00E94C8
:100A1000A400CF91DF910895DF93CF9300D0CDB79D
:100A2000DEB78A8384E089838A81883048F48A81AA
:100A3000843030F089E06A8141E00E94A40002C065
:100A400085E0898389810F900F90CF91DF91089580
:100A5000DF93CF9300D0CDB7DEB78A8384E089835C
:100A60008A81883048F48A81843030F089E06A8154
:100A700040E00E94A40002C085E0898389810F9034
:100A80000F90CF91DF910895DF93CF9300D0CDB732
:100A9000DEB78A8384E089838A81883040F48A8142
:100AA000843028F089E06A810E94340402C085E025
:100AB000898389810F900F90CF91DF910895DF9303
:100AC000CF9300D0CDB7DEB785E08A8385E08983F8
:100AD0000E9485050E9449000E94DD048BE00E946F
:100AE00089009E012E5F3F4F8BE0B9010E945F009D
:100AF0008A81882339F49A818981891719F084E0E1
:100B00000E9444058A818983ECCFDF93CF93CDB7D0
:100B1000DEB7A3E5B0E0E3E5F0E080818F7B8C9366
:100B2000A3E5B0E0E3E5F0E08081877F8C93A3E567
:100B3000B0E0E3E5F0E080818F778C93A3E5B0E04F
:100B4000E3E5F0E080818F7D8C93A3E5B0E0E3E501
:100B5000F0E080818F7E8C93A3E5B0E0E3E5F0E0E8
:100B600080818B7F8C93A3E5B0E0E3E5F0E08081AA
:100B700082608C93A3E5B0E0E3E5F0E080818E7FB6
:100B80008C93CF91DF910895DF93CF9300D000D065
:100B9000CDB7DEB78A8381E089838A81282F30E050
:100BA0003C832B838B819C818930910509F46BC038
:100BB0002B813C812A3031058CF48B819C818730DC
:100BC0009105A9F12B813C81283031050CF045C0FD
:100BD0008B819C8186309105A1F0ADC02B813C8139
:100BE0002B30310509F47BC08B819C818B309105C2
:100BF0000CF45FC02B813C812C30310509F485C099
:100C00009AC0A3E5B0E0E3E5F0E080818B7F8C93B0
:100C1000A3E5B0E0E3E5F0E080818D7F8C93A3E570
:100C2000B0E0E3E5F0E0808181608C9385C0A3E5CE
:100C3000B0E0E3E5F0E080818B7F8C93A3E5B0E04A
:100C4000E3E5F0E0808182608C93A3E5B0E0E3E52A
:100C5000F0E080818E7F8C936FC0A3E5B0E0E3E588
:100C6000F0E080818B7F8C93A3E5B0E0E3E5F0E0DA
:100C7000808182608C93A3E5B0E0E3E5F0E08081C1
:100C800081608C9359C0A3E5B0E0E3E5F0E080819A
:100C900084608C93A3E5B0E0E3E5F0E080818D7F94
:100CA0008C93A3E5B0E0E3E5F0E080818E7F8C9348
:100CB00043C0A3E5B0E0E3E5F0E0808184608C937D
:100CC000A3E5B0E0E3E5F0E080818D7F8C93A3E5C0
:100CD000B0E0E3E5F0E0808181608C932DC0A3E576
:100CE000B0E0E3E5F0E0808184608C93A3E5B0E0C0
:100CF000E3E5F0E0808182608C93A3E5B0E0E3E57A
:100D0000F0E080818E7F8C9317C0A3E5B0E0E3E52F
:100D1000F0E0808184608C93A3E5B0E0E3E5F0E04F
:100D2000808182608C93A3E5B0E0E3E5F0E0808110
:100D300081608C9301C0198289810F900F900F9070
:100D40000F90CF91DF910895DF93CF93CDB7DEB7AA
:100D5000A3E5B0E0E3E5F0E080818B7F8C93A3E531
:100D6000B0E0E3E5F0E080818D7F8C93A3E5B0E017
:100D7000E3E5F0E080818E7F8C93CF91DF91089541
:100D8000DF93CF9300D000D0CDB7DEB78A8381E068
:100D900089838A81282F30E03C832B838B819C813F
:100DA0008131910531F02B813C812231310549F0AF
:100DB00010C0A8E5B0E0E8E5F0E0808181608C93A8
:100DC00009C0A8E5B0E0E8E5F0E0808182608C939E
:100DD00001C0198289810F900F900F900F90CF91D1
:100DE000DF910895DF93CF9300D000D000D0CDB72E
:100DF000DEB78A837C836B8381E089838A81282F95
:100E000030E03E832D838D819E818131910531F0CB
:100E10002D813E812231310549F011C0E8E5F0E035
:100E200080818170EB81FC8180830AC0E8E5F0E07D
:100E3000808186958170EB81FC81808301C019825D
:100E4000898126960FB6F894DEBF0FBECDBFCF9135
:100E5000DF910895DF93CF9300D000D0CDB7DEB7F8
:100E60008A8381E089838A81282F30E03C832B8329
:100E70008B819C818131910531F02B813C81223124
:100E8000310581F01EC0A8E5B0E0E8E5F0E0808122
:100E900081608C93A9E5B0E0E9E5F0E080818160B4
:100EA0008C9310C0A8E5B0E0E8E5F0E080818260B6
:100EB0008C93A9E5B0E0E9E5F0E0808182608C9355
:100EC00001C0198289810F900F900F900F90CF91E0
:100ED000DF910895DF93CF9300D000D0CDB7DEB778
:100EE0008A8381E089838A81282F30E03C832B83A9
:100EF0008B819C818131910531F02B813C812231A4
:100F0000310549F010C0A9E5B0E0E9E5F0E08081E5
:100F10008E7F8C9309C0A9E5B0E0E9E5F0E080811F
:100F20008D7F8C9301C0198289810F900F900F9053
:100F30000F90CF91DF910895DF93CF9300D00F9260
:100F4000CDB7DEB78B8381E08A838B8180958983DF
:100F5000E2E5F0E0898180838A810F900F900F9005
:100F6000CF91DF910895DF93CF9300D0CDB7DEB757
:100F70008A8381E08983ECE5F0E08A81808389813E
:100F80000F900F90CF91DF910895DF93CF9300D012
:100F900000D000D0CDB7DEB78A837C836B8381E03D
:100FA00089838B819C81009701F18A81282F30E011
:100FB0003E832D838D819E818131910531F02D817C
:100FC0003E812231310541F00EC08B819C8190938E
:100FD0006D0080936C000AC08B819C8190936B00A4
:100FE00080936A0003C0198201C019828981269604
:100FF0000FB6F894DEBF0FBECDBFCF91DF9108953D
:101000001F920F920FB60F9211242F933F934F937D
:101010005F936F937F938F939F93AF93BF93EF9360
:10102000FF93DF93CF93CDB7DEB780916A009091A5
:101030006B00009729F0E0916A00F0916B00099530
:10104000CF91DF91FF91EF91BF91AF919F918F91E0
:101050007F916F915F914F913F912F910F900FBEB4
:101060000F901F9018951F920F920FB60F92112498
:101070002F933F934F935F936F937F938F939F93A0
:10108000AF93BF93EF93FF93DF93CF93CDB7DEB7CB
:1010900080916C0090916D00009729F0E0916C00B8
:1010A000F0916D000995CF91DF91FF91EF91BF9184
:1010B000AF919F918F917F916F915F914F913F91F0
:1010C0002F910F900FBE0F901F9018950F931F93A5
:1010D000DF93CF93CDB7DEB7C954D0400FB6F894A5
:1010E000DEBF0FBECDBF6B877C878D879E8783E178
:1010F000898380916100833109F0C5C188E18A83C9
:101100001B821C821D821E821F821886198681E125
:101110000E946A0782E10E946A0787E00E94C40574
:1011200082E10E94C0068AEF0E94B3078FEF0E94FF
:101130009C073AC19E01265F3F4F82E1B9010E94A0
:10114000F2068A85813009F02FC182E10E94C00633
:101150000A810F8F1B8118A32C8129A33D813AA3FB
:101160004E814BA35F815CA368856DA379857EA3C7
:1011700081E08FA318A619A61AA61BA61CA61DA659
:101180001EA69F8D0FA1900F9FA711E01FAB2FA54B
:101190003F8D231708F01FAA48A158A5450F48AB5B
:1011A00061E068AF78A988A1781708F018AE9FA908
:1011B00008A9900F99AF11E01AAF29AD38A92317EC
:1011C00008F01AAE48AD5AAD452B48AF69AD68ABD3
:1011D00079A189A5780F79AB91E09BAF09A919A1F5
:1011E000011708F01BAE28AD39A9230F2CAF41E041
:1011F0004DAF5CAD69A9561708F01DAE7BAD8DAD46
:10120000782B7BAF9CAD99AB0AA11AA5010F0AAB55
:1012100021E02EAF3AA94AA1341708F01EAE5BAD0B
:101220006AA9560F5FAF71E021967FAF21978FAD0E
:101230009AA9891718F021961FAE21970EAD219615
:101240001FAD2197012B0EAF2FAD2AAB3BA14BA5B4
:10125000340F3BAB51E022965FAF22976BA97BA185
:10126000671718F022961FAE22978EAD9BA9890FA3
:1012700023968FAF239701E024960FAF24972396F0
:101280001FAD23972BA9121718F024961FAE249791
:1012900022963FAD229724964FAD2497342B229669
:1012A0003FAF229723965FAD23975BAB6CA17CA5E4
:1012B000670F6CAB81E025968FAF25979CA90CA199
:1012C000901718F025961FAE259722961FAD2297EE
:1012D0002CA9120F26961FAF269731E027963FAF15
:1012E000279726964FAD26975CA9451718F02796A5
:1012F0001FAE279725966FAD259727967FAD279729
:10130000672B25966FAF259726968FAD26978CABCA
:101310009DA10DA5900F9DAB11E028961FAF2897BA
:101320002DA93DA1231718F028961FAE28972596C2
:101330004FAD25975DA9450F29964FAF299761E0DD
:101340002A966FAF2A9729967FAD29978DA978178E
:1013500018F02A961FAE2A9728969FAD28972A96AE
:101360000FAD2A97902B28969FAF289729961FADEF
:1013700029971DAB2EA13EA5230F2EAB28968FAD2E
:1013800028974EA9840F8EAB2FA538A949A95AA931
:101390006BA97CA98DA99EA92A833B834C835D837D
:1013A0006E837F83888799878B859C85AD85BE8575
:1013B000880F991FAA1FBB1F880F991FAA1FBB1F49
:1013C0008C019D0140E050E060E070E00F8B188FD1
:1013D000298F3A8F4B8F5C8F6D8F7E8F1A811F877D
:1013E0002B81288B3C81398B4D814A8B5E815B8BB5
:1013F0006F816C8B78857D8B89858E8B9E890E8D18
:10140000091708F442C01E892E8D121709F092CEDA
:101410003D894D8D4317C8F15D896D8D561709F0D3
:1014200089CE7C898C8D871780F19C890C8D9017D3
:1014300009F080CE1B892B8D211738F13B894B8D0C
:10144000341709F077CE5A896A8D6517F0F07A89DA
:101450008A8D781709F06ECE9989098D0917A8F041
:101460001989298D121709F065CE3889488D4317DF
:1014700060F05889688D561709F05CCE7F858F899A
:10148000871718F057CE84E189838981C75BDF4FC6
:101490000FB6F894DEBF0FBECDBFCF91DF911F9185
:1014A0000F910895DF93CF9300D000D00F92CDB766
:1014B000DEB76A837B838C839D8383E189838091FC
:1014C0006100833109F043C081E10E946A0782E133
:1014D0000E946A078A819B81AC81BD81880F991F18
:1014E000AA1FBB1F880F991FAA1FBB1F9C01AD011C
:1014F00060E070E080E090E0209362003093630051
:101500004093640050936500609366007093670099
:1015100080936800909369000E94A4068AEF0E945D
:10152000B3078FEF0E949C0784E18093610082E102
:101530000E942A0722EB3AE082E1B9010E94C50726
:1015400087E00E94C40587E18093600002C084E1C7
:10155000898389810F900F900F900F900F90CF91FA
:10156000DF910895DF93CF93CDB7DEB7E3970FB642
:10157000F894DEBF0FBECDBF80916100843109F0C9
:1015800049C1809162008987909163009A87809118
:1015900064008B87909165009C87809166008D87A1
:1015A000909167009E87809168008F879091690075
:1015B000988B8889882391F59889992309F02AC105
:1015C0008F85882359F59F85992309F023C18E853E
:1015D000882321F59E85992309F01CC18D858823D8
:1015E000E9F49D85992309F015C18C858823B1F410
:1015F0009C85992309F00EC18B85882379F49B85FE
:10160000992309F007C18A85882341F49A85992393
:1016100009F000C18985893108F4FCC0909162000D
:101620009983809163008A83909164009B83809169
:1016300065008C83909166009D83809167008E8306
:10164000909168009F838091690088879FEF998BB4
:101650008FEF8A8B9FEF9B8B8FEF8C8B9FEF9D8BF8
:101660008FEF8E8B9FEF9F8B8FEF888F998189896A
:10167000980F998F91E099A3898D9981891708F026
:1016800019A28A819A89890F8A8F81E08AA39A8D0B
:101690008A81981708F01AA299A18A8D980F9BA3A6
:1016A00091E09CA38BA19A8D891708F01CA28AA1B6
:1016B0009CA1892B8AA38BA18A8F9B818B89980FF0
:1016C0009B8F91E09DA38B8D9B81891708F01DA2B4
:1016D0008AA19B8D890F8EA381E08FA39EA18B8D04
:1016E000981708F01FA29DA18FA1982B9DA39EA1E2
:1016F0009B8F8C819C89890F8C8F81E088A79C8D22
:101700008C81981708F018A69DA18C8D980F99A729
:1017100091E09AA789A59C8D891708F01AA688A53B
:101720009AA5892B88A789A58C8F9D818D89980F73
:101730009D8F91E09BA78D8D9D81891708F01BA639
:1017400088A59D8D890F8CA781E08DA79CA58D8D87
:10175000981708F01DA69BA58DA5982B9BA79CA567
:101760009D8F8E819E89890F8E8F81E08EA79E8DA1
:101770008E81981708F01EA69BA58E8D980F9FA7A7
:1017800091E098AB8FA59E8D891708F018AA8EA5B9
:1017900098A9892B8EA78FA58E8F9F818F89980FEF
:1017A0009F8F91E099AB8F8D9F81891708F019AABF
:1017B0008EA59F8D890F8AAB81E08BAB9AA98F8D07
:1017C000981708F01BAA99A98BA9982B99AB9AA9ED
:1017D0009F8F8885988D890F88A389A998A1890FE3
:1017E00088A3298D3A8D4B8D5C8D6D8D7E8D8F8D6F
:1017F00098A120936200309363004093640050935B
:101800006500609366007093670080936800909312
:10181000690006C083E18093610086E180936000E7
:10182000E3960FB6F894DEBF0FBECDBFCF91DF9128
:061830000895F894FFCFBB
:0A1836001513180000000000000068
:00000001FF
